:020000040800F2
:1000000000000820094300089D3900089F390008B6
:10001000A1390008A3390008A53900080000000034
:10002000000000000000000000000000A7390008E8
:10003000A939000800000000AB390008AD390008FC
:100040005943000859430008594300085943000820
:100050005943000859430008594300085943000810
:100060005943000859430008594300085943000800
:100070002D3A000859430008D939000859430008AF
:100080004D3A0008E939000859430008594300086F
:1000900059430008594300085943000859430008D0
:1000A00059430008594300085943000859430008C0
:1000B000C9390008B93900085943000859430008F4
:1000C00059430008594300085943000859430008A0
:1000D00059430008594300080D3A00081D3A00082A
:1000E0005943000859430008594300085943000880
:1000F0005943000859430008594300085943000870
:10010000594300085943000859430008594300085F
:10011000594300085943000859430008594300084F
:10012000594300085943000859430008594300083F
:10013000594300085943000859430008594300082F
:10014000594300085943000859430008594300081F
:10015000594300085943000859430008594300080F
:1001600059430008594300085943000859430008FF
:100170005943000859430008594300080000000093
:1001800059430008594300085943000859430008DF
:1001900059430008594300085943000859430008CF
:1001A00059430008594300085943000859430008BF
:1001B00059430008594300085943000859430008AF
:1001C0005943000859430008000000005943000843
:1001D000594300085943000859430008594300088F
:1001E000594300085943000859430008594300087F
:0801F0005943000859430008BF
:1002000010B5054C237833B9044B13B10448AFF350
:1002100000800123237010BD70000020000000004A
:10022000E453000808B5034B1BB103490348AFF37F
:10023000008008BD0000000074000020E4530008A6
:1002400001F0FF01102A2BDB10F0070F08D010F887
:10025000013B013A8B422DD010F0070F42B3F6D18B
:10026000F0B441EA012141EA014122F007047FF0A4
:1002700000070023F0E80256083C85EA010586EAFB
:10028000010685FA47F5A3FA87F586FA47F6A5FA37
:1002900087F68EB9EED1F0BC01F0FF0102F0070243
:1002A00032B110F8013B013A83EA010313B1F8D1EE
:1002B0000020704701387047002D06BF35460338CF
:1002C000073815F0010F07D1013015F4807F02BF08
:1002D000013015F4C03F0130F0BC0138704700BF59
:1002E00053B94AB9002908BF00281CBF4FF0FF319D
:1002F0004FF0FF3000F07AB9ADF1080C6DE904CE93
:1003000000F006F8DDF804E0DDE9022304B07047F0
:100310002DE9F0478C460D460446089E002B51D12E
:100320008A4217466DD9B2FA82FEBEF1000F0BD099
:10033000CEF1200C01FA0EF520FA0CFC02FA0EF7B1
:100340004CEA050C00FA0EF44FEA174A250CBCFBE8
:10035000FAF81FFA87F90AFB18CC45EA0C4508FBA6
:1003600009F3AB420AD9ED1908F1FF3280F023817D
:10037000AB4240F22081A8F102083D44ED1AA4B23C
:10038000B5FBFAF00AFB105544EA054400FB09F9F5
:10039000A14509D9E41900F1FF3380F00A81A14594
:1003A00040F2078102383C44A4EB090440EA0840CB
:1003B0000021002E61D024FA0EF400233460736013
:1003C000BDE8F0878B4207D9002E54D0002186E883
:1003D00021000846BDE8F087B3FA83F1002940F018
:1003E0008E80AB4202D3824200F2FA80841A65EB1F
:1003F00003050120AC46002E3FD086E81010BDE872
:10040000F08712B90127B7FBF2F7B7FA87FEBEF102
:10041000000F34D1EB1B3A0C1FFA87FC0121B3FB10
:10042000F2F8250C02FB183345EA03450CFB08F3F0
:10043000AB4207D9ED1908F1FF3002D2AB4200F20E
:10044000D1808046ED1AA3B2B5FBF2F002FB105545
:1004500043EA05440CFB00FCA44507D9E41900F16C
:10046000FF3302D2A44500F2B8801846A4EB0C0476
:1004700040EA08409DE731463046BDE8F087CEF1BE
:10048000200405FA0EF307FA0EF720FA04F83A0CE6
:1004900025FA04F448EA0308B4FBF2F14FEA1845E0
:1004A00002FB11441FFA87FC45EA044501FB0CF3EB
:1004B000AB4200FA0EF409D9ED1901F1FF3080F0DA
:1004C0008A80AB4240F2878002393D44EB1A1FFA22
:1004D00088F5B3FBF2F002FB103345EA034500FB5D
:1004E0000CF3AB4207D9ED1900F1FF386FD2AB42E4
:1004F0006DD902383D44EB1A40EA01418FE7C1F162
:10050000200722FA07F88B4005FA01F448EA0303B2
:1005100020FA07FE4FEA134CFD404EEA040EB5FBED
:10052000FCF94FEA1E440CFB19551FFA83F844EA04
:10053000054509FB08F4AC4202FA01F200FA01FA9F
:1005400008D9ED1809F1FF3043D2AC4241D9A9F1E5
:1005500002091D442D1B1FFA8EFEB5FBFCF00CFB9F
:1005600010554EEA054400FB08F8A04507D9E418E9
:1005700000F1FF3529D2A04527D902381C4440EAB2
:100580000940A4EB0804A0FB02894C45C6464D4631
:1005900015D312D056B1BAEB0E0364EB050404FA7E
:1005A00007F7CB401F43CC40376074600021BDE8A3
:1005B000F0871846F8E69046E0E6C245EAD2B8EB86
:1005C000020E69EB03050138E4E72846D7E7404609
:1005D00091E78146BEE7014678E702383C4445E7AB
:1005E000084608E7A8F102083D442BE7704700BF22
:1005F00010B504460E4B18784FF47A73B3FBF0F342
:100600000C4A1068B0FBF3F000F0A6F868B90F2CA4
:1006100001D9012010BD002221464FF0FF3000F02B
:1006200051F8054B1C60002010BD012010BD00BF1B
:1006300000000020080000200400002008B503206E
:1006400000F02EF80020FFF7D3FF03F05FF9002041
:1006500008BD0000034A1168034B1B780B4413606C
:10066000704700BF0801002000000020014B1868FF
:10067000704700BF0801002038B50446FFF7F6FFB9
:100680000546B4F1FF3F02D0044B1B781C44FFF732
:10069000EDFF401B8442FAD838BD00BF00000020A7
:1006A0000649CB6823F4E0631B041B0C000200F432
:1006B000E0600343024A1A43CA60704700ED00E05D
:1006C0000000FA0530B4144BDB68C3F30223C3F116
:1006D0000704042C28BF04241D1D062D13D9033B39
:1006E000012505FA04F4013C2140994005FA03F381
:1006F000013B13401943002807DB0901C9B2074B2E
:10070000195430BC70470023EAE700F00F000901DC
:10071000C9B2034B1954F4E700ED00E000E400E037
:1007200014ED00E0420900F01F00012303FA00F07D
:10073000014B43F82200704700E100E0430900F05C
:100740001F00012202FA00F02033024A42F823007F
:10075000704700BF00E100E00138B0F1807F0AD2AD
:10076000064B5860F021064A82F82310002098605A
:1007700007221A6070470120704700BF10E000E0B8
:1007800000ED00E0042805D0054A136823F00403B7
:1007900013607047024A136843F004031360704704
:1007A00010E000E0704708B5FFF7FCFF08BD00004F
:1007B000002838D010B50446437F1BB3022363776B
:1007C00023791BBB2368194A5A612268936823F076
:1007D00018039360637913BB23684FF0FF321A61EB
:1007E0002268936823F0600361690B439360226879
:1007F000936823F08003A1690B439360012363771F
:10080000002010BD037702F08BFCD7E7E268A168F7
:10081000204600F00DF80028DCD0012010BD236830
:1008200022691A61DCE70120704700BFB71DC104CF
:1008300010B41F2300E0234621FA03F414F0010F43
:1008400003D15C1E002BF6D12346102A13D0182AA0
:100850000DD0082A13D00368596101688B6823F012
:1008600018031A438A6000205DF8044B7047062B7A
:10087000F1D90120F8E7072BEDD90120F4E70F2B80
:10088000E9D90120F0E700000268D3B2103B094922
:10089000A1FB03131B090849C95CC165032B04D8DC
:1008A000064B13408365806D7047044B134004333F
:1008B0008365F8E7ABAAAAAAFC53000800FCFFFF77
:1008C000836A826992B9012B0AD01BB1022B01D035
:1008D00000207047C36A13F0807F2CD1002070473E
:1008E000C36AB3F1C07F28D000207047B2F5005F23
:1008F00005D0022B29D9032B15D000207047032BDC
:1009000003D8DFE803F01C041C0A00207047C36A08
:1009100013F0807F15D100207047C36AB3F1C07F08
:1009200011D000207047C36A13F0807F01D00120EE
:100930007047002070470120704701207047012058
:100940007047012070470120704701207047000068
:1009500070B50446FFF78AFE002C5DD005460023E3
:1009600084F83430022384F835302268136823F089
:100970000103136023681A6812F0010F0AD0FFF711
:1009800075FE401B0528F5D920236365032084F8F4
:10099000350070BD1A68214911406268A0680243A1
:1009A000E06802432069024360690243A069024390
:1009B000E0690243206A02430A43616A042916D0AF
:1009C0001A602668756925F00705636A1D43042BC4
:1009D00012D075612046FFF757FFE26D3F23934029
:1009E000836000206065012384F8353070BDE16AC2
:1009F000206B01430A43E3E7A36A1D43E36A002B2C
:100A0000E7D02046FFF75CFF0028E2D04023636573
:100A1000012084F8350070BD012070BD3F8010E0DA
:100A200000282ED038B5044690F83530DBB2022BC2
:100A300001D1022038BD0268136823F0010313605E
:100A4000036800251D6003685D6003689D6003689E
:100A5000DD6003681D61036821225A61FFF714FFFE
:100A6000E26D3F2393408360E56325646564A5647C
:100A7000E5642565656584F8355084F8345028466A
:100A800038BD0120704790F83530DBB2022B03D01F
:100A90008023436501207047052380F835300268C4
:100AA000136823F00103136000207047F0B583B092
:100AB000044600230193724B1D68724BA3FB05355E
:100AC000AD0A876D3E68C26D082393401E4210D068
:100AD00003681A6812F0040F0BD01A6822F004029F
:100AE0001A60C26D08239340BB60436D43F001035D
:100AF0004365E26D012393401E4209D0226852698A
:100B000012F0800F04D0BB60636D43F00203636595
:100B1000E26D042393401E4209D02268126812F04D
:100B2000020F04D0BB60636D43F004036365E26DA4
:100B3000102393401E4224D02268126812F0080F3E
:100B40001FD0BB6023681A6812F4802F0DD01B6879
:100B500013F4002F04D1236C9BB12046984710E07A
:100B6000A36C73B1204698470BE01A6812F4807F9B
:100B700003D11A6822F008021A60236C0BB12046D8
:100B80009847E26D202393401E4255D02268126898
:100B900012F0100F50D0BB6094F83530DBB2052B4B
:100BA0000ED023681A6812F4802F33D01B6813F418
:100BB000002F2AD1636C002B3ED0204698473BE0A3
:100BC0002268136823F0160313602268536923F028
:100BD00080035361236CA3B12268136823F00803D8
:100BE0001360E26D3F239340BB60002384F83430F0
:100BF000012384F83530236D002B3FD020469847E1
:100C00003CE0A36C002BE7D1EBE7E36BA3B12046FC
:100C1000984711E01A6812F4807F09D11A6822F00F
:100C200010021A60002384F83430012384F8353030
:100C3000E36B0BB120469847636DFBB1636D13F016
:100C4000010F17D0052384F835302268136823F08C
:100C500001031360019B013301939D4204D3236878
:100C60001B6813F0010FF5D1002384F83430012301
:100C700084F83530E36C0BB12046984703B0F0BDE3
:100C800008000020B5814E1BF0B583B0002437E08A
:100C9000092600E0002606FA0EF6324302336C4EB7
:100CA00046F823206B4B1A68EB4302EA03064F68B1
:100CB00017F4803F01D045EA0206664A1660526882
:100CC00003EA02064F6817F4003F01D045EA020626
:100CD000604A5660926803EA02064F6817F4801F64
:100CE00001D045EA02065B4A9660D26813404E681E
:100CF00016F4001F01D045EA0203564AD3600134BE
:100D00000F2C00F2A3800123A3400A6803EA020526
:100D1000AB42F4D14A68122A18BF022A12D14FEA14
:100D2000D40E0EF1080E50F82E2004F00706B6007F
:100D30000F27B74022EA07020F6907FA06F6324387
:100D400040F82E2006684FEA440E032202FA0EF203
:100D5000D24316404F6807F0030707FA0EF73E43E9
:100D600006604E68771E112E18BF012F01D9122E72
:100D70000FD186681640CF6807FA0EF73E438660AB
:100D8000466826EA03034E68C6F30016A6403343BE
:100D90004360C3681A408B6803FA0EF31A43C260BB
:100DA0004B6813F0805FAAD02B4B5A6C42F4804200
:100DB0005A645B6C03F480430193019BA3089E1C5F
:100DC000234A52F8262004F003064FEA860E0F2627
:100DD00006FA0EF622EA0602204FB8423FF45AAF56
:100DE0001F4EB04222D006F58066B04220D006F5F4
:100DF0008066B0421ED006F58066B0421CD006F573
:100E00008066B0421AD006F58066B04218D006F56A
:100E10008066B04216D006F58066B04214D006F562
:100E20008066B0423FF434AF0A2634E7012632E749
:100E3000022630E703262EE704262CE705262AE7BC
:100E4000062628E7072626E7082624E703B0F0BD94
:100E500000380140003C01400038024000000240E0
:100E60000004024000230F2B00F29280F0B50AE04C
:100E7000092600E0002606FA02F294426FD0013300
:100E80000F2B00F2848001229A4002EA0105AA4257
:100E9000F5D106685F000324BC40E44326400660A9
:100EA0004FEAD30E0EF1080E50F82EC003F00706DD
:100EB000B6000F2707FA06F62CEA060640F82E6061
:100EC000866826408660466826EA02024260C2685A
:100ED0001440C4604FEA930E0EF102042D4A52F8FA
:100EE000244003F00302920097403C402A4EB04257
:100EF000C0D006F58066B04221D006F58066B042CB
:100F00001FD006F58066B0421DD006F58066B0425F
:100F10001BD006F58066B04219D006F58066B04257
:100F200017D006F58066B04215D006F58066B0424F
:100F300013D006F58066B0429AD00A269BE70126B8
:100F400099E7022697E7032695E7042693E7052607
:100F500091E706268FE707268DE708268BE70D4EDB
:100F60000EF1020256F8224024EA070746F82270E2
:100F70000A4C2668EA43164026606568154065609D
:100F8000A5681540A560E5682A40E26077E7F0BDF6
:100F9000704700BF0038014000000240003C0140A3
:100FA00012B909048161704781617047002857D0E8
:100FB00010B5044690F84130002B41D0242384F82A
:100FC00041302268136823F00103136022686368CC
:100FD00023F0706313612268936823F400439360E5
:100FE000E368012B31D02268A36843F40443936083
:100FF000E368022B2FD0226851681A4B0B435360D1
:101000002268D36823F40043D360226823696169AE
:101010000B43A16943EA0123D3602268E369216A93
:101020000B4313602268136843F001031360002030
:101030006064202384F84130206384F8420010BDAE
:1010400080F8403002F004FAB8E72268A36843F45D
:1010500000439360CCE723684FF400625A60CAE70C
:10106000012070470080000290F84130DBB2202B55
:1010700001D00220704790F84030012B20D001238E
:1010800080F84030242380F841300268136823F050
:10109000010313600268136823F48053136002682D
:1010A0001368194311600268136843F00103136069
:1010B000202380F84130002380F8403018467047E4
:1010C0000220704790F84130DBB2202B01D0022083
:1010D000704790F84030012B1ED0012380F840303B
:1010E000242380F841300268136823F00103136061
:1010F0000268136823F4706343EA012111600268F7
:10110000136843F001031360202380F8413000236B
:1011100080F84030184670470220704710B582B002
:101120001B4B1A6C42F080521A641B6C03F0805304
:101130000193019B174A136843F480331360FFF750
:1011400095FA0446134B5B6813F4803F08D1FFF710
:101150008DFA001BB0F57A7FF4D9032002B010BDE0
:101160000C4A136843F400331360FFF77FFA044618
:10117000084B5B6813F4003F07D1FFF777FA001BB9
:10118000B0F57A7FF4D90320E8E70020E6E700BF56
:101190000038024000700040002800F0DC8170B58B
:1011A00082B00446036813F0010F3AD0A24B9B684B
:1011B00003F00C03042B2BD09F4B9B6803F00C0314
:1011C000082B20D06368B3F5803F50D0002B54D15A
:1011D000994B1A6822F480321A601A6822F480222D
:1011E0001A606368002B5FD0FFF740FA0546924B08
:1011F0001B6813F4003F14D1FFF738FA401B642832
:10120000F5D90320ACE18C4B5B6813F4800FD9D087
:10121000894B1B6813F4003F03D06368002B00F078
:101220009C81236813F0020F64D0834B9B6813F0FA
:101230000C0F4DD0804B9B6803F00C03082B42D061
:10124000E368002B79D07C4A136843F001031360F4
:10125000FFF70CFA0546784B1B6813F0020F63D1B9
:10126000FFF704FA401B0228F5D9032078E1724AFF
:10127000136843F480331360B3E7B3F5A02F09D0AC
:101280006D4B1A6822F480321A601A6822F48022A8
:101290001A60A6E7684B1A6842F480221A601A683E
:1012A00042F480321A609CE7FFF7E0F90546624B92
:1012B0001B6813F4003FB4D0FFF7D8F9401B642833
:1012C000F5D903204CE15C4B5B6813F4800FB7D178
:1012D000594B1B6813F0020F04D0E368012B01D0B7
:1012E00001203DE1544A136823F0F803216943EAE1
:1012F000C1031360236813F0080F46D0636983B3FA
:101300004D4A536F43F001035367FFF7AFF90546AA
:10131000494B5B6F13F0020F37D1FFF7A7F9401B62
:101320000228F5D903201BE1434A136823F0F80390
:10133000216943EAC1031360DCE73F4A136823F0E5
:1013400001031360FFF792F905463B4B1B6813F04E
:10135000020FCFD0FFF78AF9401B0228F5D90320EE
:10136000FEE0354A536F23F001035367FFF77EF920
:101370000546314B5B6F13F0020F06D0FFF776F98D
:10138000401B0228F5D90320EAE0236813F0040F7C
:101390007ED0294B1B6C13F0805F31D1264B1A6C29
:1013A00042F080521A641B6C03F080530193019B3E
:1013B0000125224B1B6813F4807F23D0A368012BE7
:1013C00034D0002B3CD11C4B1A6F22F001021A675B
:1013D0001A6F22F004021A67A368002B46D0FFF7A9
:1013E00045F90646144B1B6F13F0020F4FD1FFF760
:1013F0003DF9801B41F288339842F3D90320AFE0D6
:101400000025D6E70D4A136843F480731360FFF795
:101410002DF90646094B1B6813F4807FCED1FFF7E8
:1014200025F9801B6428F5D9032099E0024A136F3F
:1014300043F001031367CFE700380240007000401B
:10144000052B09D0484B1A6F22F001021A671A6F58
:1014500022F004021A67BFE7434B1A6F42F00402FE
:101460001A671A6F42F001021A67B5E7FFF7FEF834
:1014700006463D4B1B6F13F0020F08D0FFF7F6F83E
:10148000801B41F288339842F3D9032068E0F5B914
:10149000A369002B63D0344A926802F00C02082A38
:1014A00060D0022B19D0304A136823F08073136088
:1014B000FFF7DCF804462C4B1B6813F0007F48D084
:1014C000FFF7D4F8001B0228F5D9032048E0264A8C
:1014D000136C23F080531364DAE7234A136823F074
:1014E00080731360FFF7C2F805461F4B1B6813F0AB
:1014F000007F06D0FFF7BAF8401B0228F5D9032079
:101500002EE0E369226A1343626A43EA8213A26A05
:101510005208013A43EA0243E26A43EA0263226B59
:1015200043EA0273104A5360136843F080731360F8
:10153000FFF79CF804460C4B1B6813F0007F06D1A4
:10154000FFF794F8001B0228F5D9032008E00020DB
:1015500006E0002004E001207047012000E00020A8
:1015600002B070BD0120FBE700380240F8B5314BF6
:101570009B6803F00C03042B59D0082B01D02E4894
:10158000F8BD2C4B5A6802F03F025B6813F4800FE1
:101590002AD0284B5B68C3F388131E4600275C01E2
:1015A0000025E41A65EB0705A90141EA9461A00151
:1015B000001B61EB0501CB0043EA5073C400A01986
:1015C00043EB07014B0243EAD0534402204619463D
:1015D0000023FEF785FE174B5B68C3F3014301331D
:1015E0005B00B0FBF3F0F8BD124B5B68C3F38813EC
:1015F0001E4600275C010025E41A65EB0705A901DA
:1016000041EA9461A001001B61EB0501CB0043EAB4
:101610005073C400A01943EB07018B0243EA9053B7
:101620008402204619460023FEF75AFED3E70348FA
:10163000F8BD00BF003802400024F40000127A0018
:10164000002800F0A28070B50446524B1B6803F0DE
:101650000F038B420CD24F4A136823F00F030B4346
:101660001360136803F00F03994201D0012070BD8D
:10167000236813F0020F17D013F0040F04D0464A6A
:10168000936843F4E0539360236813F0080F04D089
:10169000414A936843F4604393603F4A936823F060
:1016A000F003A068034393600D46236813F0010F15
:1016B00031D06368012B20D0022B25D0364A126826
:1016C00012F0020F63D034498A6822F003021343F8
:1016D0008B60FEF7CBFF06462F4B9B6803F00C0395
:1016E0006268B3EB820F16D0FEF7C0FF801B41F299
:1016F00088339842F0D9032070BD274A126812F44B
:10170000003FE0D1012070BD234A126812F0007F33
:10171000D9D1012070BD1F4B1B6803F00F039D4200
:101720000CD21C4A136823F00F032B431360136879
:1017300003F00F039D4201D0012070BD236813F018
:10174000040F06D0144A936823F4E053E1680B4376
:101750009360236813F0080F07D00F4A936823F4AF
:101760006043216943EAC1039360FFF7FFFE0A4B20
:101770009B68C3F30313094AD35CD840084B186035
:101780000020FEF735FF002070BD012070470120CA
:1017900070BD00BF003C0240003802402C560008DB
:1017A00008000020014B1868704700BF08000020A7
:1017B00008B5FFF7F7FF044B9B68C3F38223034A86
:1017C000D35CD84008BD00BF003802403C5600083A
:1017D00008B5FFF7E7FF044B9B68C3F34233034AA6
:1017E000D35CD84008BD00BF003802403C5600081A
:1017F000F0B583B00446036813F0010F0CD0B54B6D
:101800009A6822F400029A609A68416B0A439A60CF
:10181000436BC3B1002700E00027236813F4002FB7
:1018200015D0AC4AD2F88C3023F44013E16B0B4353
:10183000C2F88C30E36BB3F5801F06D0002B00F0AC
:101840004581002504E00127E7E70127F6E70025A9
:10185000236813F4801F0FD09E4AD2F88C3023F4F3
:101860004003216C0B43C2F88C30236CB3F5800F1E
:1018700000F02E8103B90125236813F0807F00D08A
:10188000012713F0200F40F02781236813F0100F79
:101890000CD0904BD3F88C2022F08072C3F88C20AF
:1018A000D3F88C20A16B0A43C3F88C20236813F46F
:1018B000804F08D0874AD2F8903023F44033616ECD
:1018C0000B43C2F89030236813F4004F08D0814ACC
:1018D000D2F8903023F44023A16E0B43C2F890302D
:1018E000236813F4803F08D07A4AD2F8903023F46A
:1018F0004013E16E0B43C2F89030236813F4003FAD
:1019000008D0744AD2F8903023F44003216F0B437F
:10191000C2F89030236813F0400F08D06D4AD2F817
:10192000903023F00303616C0B43C2F890302368BE
:1019300013F0800F08D0674AD2F8903023F00C03E0
:10194000A16C0B43C2F89030236813F4807F08D059
:10195000604AD2F8903023F03003E16C0B43C2F8B8
:101960009030236813F4007F08D05A4AD2F89030A0
:1019700023F0C003216D0B43C2F89030236813F4A9
:10198000806F08D0534AD2F8903023F44073616DD1
:101990000B43C2F89030236813F4006F08D04D4A0F
:1019A000D2F8903023F44063A16D0B43C2F890301D
:1019B000236813F4805F08D0464AD2F8903023F4AD
:1019C0004053E16D0B43C2F89030236813F4005F7D
:1019D00008D0404AD2F8903023F44043216E0B43A4
:1019E000C2F89030236813F4800F08D0394AD2F837
:1019F000903023F08063A16F0B43C2F890302368CE
:101A000013F4001F0DD0334AD2F8903023F0006356
:101A1000E16F0B43C2F89030E36FB3F1006F00F059
:101A2000C180236813F0080F00D0012513F4802F24
:101A300008D0284AD2F8903023F04073616F0B43EE
:101A4000C2F89030236813F4000F09D0214AD2F86D
:101A5000903023F08053D4F880100B43C2F89030BC
:101A6000236813F0806F09D01A4AD2F8903023F01F
:101A70000053D4F884100B43C2F89030236813F05D
:101A8000006F09D0134AD2F88C3023F00073D4F8D9
:101A900088100B43C2F88C30236813F0805F09D0A4
:101AA0000C4AD2F88C3023F08063D4F88C100B43AE
:101AB000C2F88C30002F77D12368B3F1007F73D048
:101AC000002D40F00581002003B0F0BD0125BFE6E8
:101AD0000127CFE600380240B84B1A6C42F0805222
:101AE0001A641B6C03F080530193019BB44A136882
:101AF00043F480731360FEF7B9FD0646B04B1B68D4
:101B000013F4807F06D1FEF7B1FD801B6428F5D960
:101B10000320D9E7A94B1B6F13F4407315D0226B38
:101B200002F44072934210D0A44B1A6F22F4407218
:101B3000196F41F480311967196F21F480311967E9
:101B40001A671B6F13F0010F12D1236B03F440725D
:101B5000B2F5407F1DD0994A936823F4F81393603F
:101B600096490B6F226BC2F30B0213430B678CE693
:101B7000FEF77CFD0646914B1B6F13F0020FE4D17C
:101B8000FEF774FD801B41F288339842F3D903209D
:101B90009AE78A48826822F4F8128A4919400A436F
:101BA0008260DDE701253CE7844A136823F0806307
:101BB0001360FEF75BFD0646804B1B6813F0006F59
:101BC00006D0FEF753FD801B6428F5D903207BE780
:101BD000236813F0010F13D0636B8BB9774AD2F8E7
:101BE0008430D2F88410606803F4403343EA8013F1
:101BF00001F070610B43A16843EA0173C2F88430BD
:101C0000236813F4002F03D0E26BB2F5801F43D09A
:101C100013F4801F03D0236CB3F5800F3CD02368EE
:101C200013F0807F11D0654AD2F88400D2F8841076
:101C3000666823691B0443EA861300F0706003435F
:101C400001F0E0410B43C2F88430236813F0007FB9
:101C50000DD0626823691B0443EA8213E26843EAF9
:101C60000263A26843EA0273544AC2F88430534ABA
:101C7000136843F080631360FEF7F8FC06464F4B91
:101C80001B6813F0006F7FF41BAFFEF7EFFC801BA7
:101C90006428F4D9032017E7484AD2F88430D2F8F0
:101CA0008410606803F4403343EA8013E06843EA39
:101CB000006301F0E0410B43C2F88430D2F88C306D
:101CC00023F01F03616A01390B43C2F88C30A6E789
:101CD0003A4A136823F080531360FEF7C7FC0546A9
:101CE000364B1B6813F0005F06D0FEF7BFFC401BAD
:101CF0006428F5D90320E7E6236813F4002F01D008
:101D0000E26B22B113F4801F1DD0236CDBB92B4A88
:101D1000D2F88830D2F88810606903F4403343EA7F
:101D20008013A06943EA006301F0E0410B43C2F86D
:101D30008830D2F88C3023F4F853A16A013943EA91
:101D40000123C2F88C30236813F4001F03D0E36F23
:101D5000B3F1006F38D0236813F0080F19D0174A79
:101D6000D2F88810D2F88830606903F4403343EA2F
:101D7000801301F070610B43E16943EA0173C2F81B
:101D80008830D2F88C3023F44033E16A0B43C2F838
:101D90008C300A4A136843F080531360FEF766FCE8
:101DA0000446064B1B6813F0005F20D1FEF75EFC73
:101DB000001B6428F5D9032086E600BF00380240E6
:101DC00000700040FFFCFF0F0A4AD2F88800D2F8EA
:101DD00088106569236A1B0443EA851300F070606C
:101DE000034301F0E0410B43C2F88830B3E7002021
:101DF0006AE600BF0038024038B50368DA6812F0BE
:101E0000400F01D0002038BD04464FF0FF32DA60A9
:101E1000FEF72CFC05462368DB6813F0400F07D162
:101E2000FEF724FC401BB0F57A7FF4D9032038BDBF
:101E3000002038BD00284AD038B50446437F002B27
:101E40003AD0022363772368CA225A622368532256
:101E50005A622046FFF7D0FF0246002830D12168A1
:101E600088681C4B03408B60206881686368256923
:101E70002B4365692B430B4383602368E168196139
:101E800021680B69A06843EA00430B612168CB68B5
:101E900023F08003CB602168CB6C23F00803CB6474
:101EA0002168CB6CA0690343CB642368FF2159628E
:101EB00001236377104638BD037701F061FCC0E76A
:101EC0002368FF225A62042363770122F2E701228A
:101ED00010467047BFFF8FFF002858D010B504464A
:101EE0000023836290F85D30002B45D0022384F8F4
:101EF0005D302268136823F040031360E368B3F594
:101F0000E06F3ED90021B3F5706F18BFB3F5E06FF5
:101F100001D00022A262226B22B9B3F5E06F33D95F
:101F20000223236322686368A06803432069034394
:101F300060690343A06900F400700343E069034350
:101F4000206A0343A06A034313602268638B03F093
:101F50000403606A0343606B0343E06803430B437D
:101F600053602268D36923F40063D36100202066A4
:101F7000012384F85D3010BD80F85C3001F064FC12
:101F8000B4E74FF48051BEE701232363CAE7012081
:101F9000704710B4036A046A24F00104046284697F
:101FA00024F0F00444EA021223F00A030B43826196
:101FB00003625DF8044B704710B4036A23F010030A
:101FC00003628469036A24F4704444EA023223F011
:101FD000A00343EA0113826103625DF8044B70477A
:101FE000836823F0700341F007010B43836070475F
:101FF0007047704770477047704710B504460368D4
:102000001A6912F0020F11D0DA6812F0020F0DD027
:102010006FF002021A610123037703689B6913F0D2
:10202000030F79D0FFF7E6FF0023237723681A69AF
:1020300012F0040F12D0DA6812F0040F0ED06FF015
:1020400004021A610223237723689B6913F4407FFB
:1020500068D02046FFF7CEFF0023237723681A6954
:1020600012F0080F12D0DA6812F0080F0ED06FF0DD
:1020700008021A61042323772368DB6913F0030F36
:1020800057D02046FFF7B6FF0023237723681A694D
:1020900012F0100F12D0DA6812F0100F0ED06FF09D
:1020A00010021A61082323772368DB6913F4407F49
:1020B00046D02046FFF79EFF0023237723681A6946
:1020C00012F0010F03D0DA6812F0010F3FD123683C
:1020D0001A6912F0800F03D0DA6812F0800F3DD138
:1020E00023681A6912F4807F03D0DA6812F0800F37
:1020F0003BD123681A6912F0400F03D0DA6812F05E
:10210000400F39D123681A6912F0200F03D0DA6822
:1021100012F0200F37D110BDFFF76BFF2046FFF7FD
:102120006AFF81E72046FFF764FF2046FFF763FF61
:1021300092E72046FFF75DFF2046FFF75CFFA3E72D
:102140002046FFF756FF2046FFF755FFB4E76FF034
:1021500001021A612046FFF74BFFB8E76FF08002DB
:102160001A61204600F093F9BAE76FF080021A6115
:10217000204600F08CF9BCE76FF040021A6120465F
:10218000FFF73AFFBEE76FF020021A61204600F029
:102190007DF9C0E770B40368474A904214BF00223B
:1021A0000122B0F1804F14BF144642F00104D4B9AB
:1021B000424DA84214BF00250125414EB04254D0E3
:1021C000002D52D105F1804505F58235A84214BF96
:1021D0000025012506F50066B04202D00DB90025A4
:1021E00002E0012500E001251DB123F070034D68D8
:1021F0002B43002C3DD1314CA04214BF00240124BC
:102200002F4DA84250D0002C4ED104F1804404F54B
:102210008234A04214BF0024012405F50065A842C1
:1022200044D0002C42D1274CA04214BF00240124EA
:1022300005F59A35A8423BD0002C39D1224CA0425A
:1022400014BF0024012405F50065A84232D0002CFB
:1022500030D11E4CA04214BF00240124A5F59635B0
:10226000A84204D01CB9002404E00125BCE70124E5
:1022700000E001241CB123F44073CC68234323F015
:1022800080034C69234303608B68C3620B688362DD
:102290000F4B984208BF42F001020AB10B69036379
:1022A0000123436170BC70470124E3E70124E1E7A7
:1022B0000124DFE70124DDE70000014000080040C1
:1022C000000400400044014000180040002000408D
:1022D00000040140A8B110B5044690F83D305BB150
:1022E000022384F83D30211D2068FFF753FF0123AE
:1022F00084F83D30002010BD80F83C3001F00AFD2C
:10230000EEE70120704710B4846824F47F4442EA69
:10231000032319430C4384605DF8044B70470000AD
:1023200090F83C30012B7DD010B50446012380F895
:102330003C30022380F83D30026890683A4B0340FD
:1023400093600B68402B59D010D9702B3ED01FD80A
:10235000502B49D0602B32D1CA6849682068FFF7FA
:102360002BFE60212068FFF73BFE28E0102B4FD0AA
:1023700008D9202B51D0302B21D130212068FFF7F4
:102380002FFE1CE0DBB900212068FFF729FE16E0D4
:10239000B3F5805F0ED0B3F5005F10D1CB684A680B
:1023A00089682068FFF7AFFF2268936843F4804391
:1023B000936004E0226891681C4B0B4093600123FA
:1023C00084F83D30002084F83C0010BDCB684A689A
:1023D00089682068FFF797FF22689168144B0B40CB
:1023E00043F077039360EAE7CA6849682068FFF71B
:1023F000D0FD50212068FFF7F3FDE0E7CA68496887
:102400002068FFF7C6FD40212068FFF7E9FDD6E709
:1024100010212068FFF7E4FDD1E720212068FFF7B5
:10242000DFFDCCE7022070478800FEFFF8FFFEFFCB
:1024300088FFFEFF90F83C30012B21D070B40123BF
:1024400080F83C3004686368A2680E4D0E4EAC42C2
:1024500018BFB44203D123F470034D682B4323F01B
:1024600070030D682B4322F0800289680A43636081
:1024700003689A60002380F83C30184670BC7047AF
:10248000022070470004014000000140704770477F
:1024900090F86930DBB2212B01D002207047B0F8F0
:1024A00052309BB293B18368B3F5805F1AD0026853
:1024B000C36C591CC1641B789362B0F852309BB254
:1024C000013B9BB2A0F852300020704702681368AD
:1024D00023F0800313600268136843F04003136025
:1024E000002070470369002BE1D1C36C02681B8890
:1024F000C3F308039362C36C0233C364DDE702686D
:10250000136823F4907313600268936823F0010347
:102510009360202380F86A307047D8B138B50446FC
:10252000242380F869300268136823F001031360E4
:10253000036800251D6003685D6003689D6001F00D
:102540005BFEE56684F8695084F86A5084F8685048
:10255000284638BD012070472DE9F04105460F4659
:1025600016469846069C2B68DB6937EA03030CBFC6
:1025700001230023B3421ED1B4F1FF3FF3D02CB1AD
:10258000FEF774F8A0EB08008442ECD82A681368C0
:1025900023F4D07313602A68936823F001039360D7
:1025A000202385F8693085F86A30002385F8683083
:1025B0000320BDE8F0810020BDE8F0812DE9F04165
:1025C00082B01E4690F86930DBB2202B04D0022383
:1025D000184602B0BDE8F08104460D469046002A38
:1025E00018BF00294CD090F86830012B01D102238C
:1025F000EEE7012380F868300023C366212380F8CA
:102600006930FEF733F80746A4F85080A4F85280EA
:1026100003E023682A789A620135B4F852309BB2FD
:10262000E3B1B4F852309BB2013B9BB2A4F85230F4
:1026300000963B46002280212046FFF78DFF08BB15
:10264000A368B3F5805FE4D12369002BE1D1226850
:1026500035F8023BC3F308039362DEE700963B467E
:10266000002240212046FFF777FF034608B10323ED
:10267000AEE7202284F86920002284F86820A7E7CA
:102680000123A5E70323A3E72DE9F04182B01E460D
:1026900090F86A30DBB2202B03D0022002B0BDE8F4
:1026A000F08104460D469046002A18BF00296DD0DF
:1026B00090F86830012B01D10220EFE7012380F868
:1026C00068300023C366222380F86A30FDF7CEFF0E
:1026D0000746A4F85880A4F85A80A368B3F5805F31
:1026E00006D0A3B9236973B9FF23A4F85C3011E0C5
:1026F000236923B940F2FF13A4F85C300AE0FF23FA
:10270000A4F85C3006E07F23A4F85C3002E0B3F16B
:10271000805F02D0B4F85C8010E023691BB97F238E
:10272000A4F85C30F6E73F23A4F85C30F2E72368B6
:102730005A6A5FFA88F313402B700135B4F85A30A7
:102740009BB2E3B1B4F85A309BB2013B9BB2A4F800
:102750005A3000963B46002220212046FFF7FCFE1F
:10276000B0B9A368B3F5805FE1D12369002BDED156
:1027700023685B6A08EA030325F8023BDEE72023AF
:1027800084F86A30002084F8680087E7012085E734
:10279000032083E708B501680B6823F040030B6052
:1027A000202380F8693001F028F9002008BD08B521
:1027B000B0F85C2090F86A30DBB2222B06D00268B9
:1027C000936943F008039361022008BD8368B3F561
:1027D000805F11D0436D591C41650168496AD2B2CE
:1027E0000A401A70B0F85A309BB2013B9BB2A0F875
:1027F0005A306BB1002008BD0369002BEAD1436D4C
:102800000168496A0A401A80436D02334365E9E76B
:102810000268136823F4907313600268936823F0CE
:1028200001039360202380F86A3001F0E5F800206E
:1028300008BD000038B504460268D3691068916885
:1028400013F00F0505D113F0200F02D010F0200F68
:102850005FD1002D73D011F0010102D110F4907FEF
:102860006DD013F0010F07D010F4807F04D0012544
:102870001562E26E2A43E26613F0020F07D031B10F
:10288000226802251562E26E42F00402E26613F04D
:10289000040F07D031B1226804251562E26E42F0C0
:1028A0000202E26613F0080F09D010F0200F00D1E9
:1028B00029B1226808211162E26E0A43E266E26EE3
:1028C000002A48D013F0200F02D010F0200F24D19E
:1028D000E36E13F0080F04D123689B6813F0400FD8
:1028E00027D02046FFF70BFE23689A6812F0400FAE
:1028F0001BD09A6822F040029A60636E8BB11A4A2C
:102900001A65606EFEF7BFF828B3606E036D9847D6
:1029100038BD2046FFF74BFF38BD2046FFF747FF85
:10292000D6E7204601F06AF838BD204601F066F887
:1029300038BD204601F062F80023E36638BD13F08D
:10294000800F02D010F0800F06D113F0400F02D09C
:1029500010F0400F04D138BD2046FFF799FD38BD77
:102960002046FFF717FFF6E76D29000808B5806BD2
:102970000023A0F85A30A0F8523001F03FF808BD0B
:1029800038B5044683680269134342691343C26938
:10299000134301680868A04A024013430B60226891
:1029A000536823F44053E1680B435360A369226AE0
:1029B000134321688A6822F4306213438B602568D0
:1029C000964B9D422BD0964B9D423CD0954B9D42C1
:1029D00052D0954B9D4267D0944B9D427CD0944BF6
:1029E0009D4200F09480934B9D4200F0AB80924B4F
:1029F0009D4200F0C2801023E269B2F5004F00F062
:102A0000DB80082B00F26881DFE813F031013C0124
:102A10004701660151016601660166015C0103F52B
:102A20009433D3F8903003F00303032B03D8DFE88B
:102A300003F0BF0604081023DEE70223DCE70423CB
:102A4000DAE70823D8E703F5FA33D3F8903003F038
:102A50000C030C2B08D8DFE803F0AD0707070B07C2
:102A60000707090707070D001023C5E70223C3E77F
:102A70000423C1E70823BFE703F5F833D3F8903008
:102A800003F03003102B0DD005D9202B08D0302BAC
:102A900004D10823B0E70BB90023ADE71023ABE75F
:102AA0000223A9E70423A7E703F5F633D3F8903010
:102AB00003F0C003402B0DD005D9802B08D0C02BCC
:102AC00004D1082398E70BB9002395E7102393E777
:102AD000022391E704238FE703F5F433D3F8903012
:102AE00003F44073B3F5807F0FD007D9B3F5007FAF
:102AF00009D0B3F5407F04D108237DE70BB900234B
:102B00007AE7102378E7022376E7042374E703F5D6
:102B10009233D3F8903003F44063B3F5806F0FD055
:102B200007D9B3F5006F09D0B3F5406F04D108237E
:102B300062E70BB901235FE710235DE702235BE740
:102B4000042359E703F5E033D3F8903003F44053FE
:102B5000B3F5805F0FD007D9B3F5005F09D0B3F5A7
:102B6000405F04D1082347E70BB9002344E7102353
:102B700042E7022340E704233EE703F5DE33D3F8C0
:102B8000903003F44043B3F5804F0FD007D9B3F52D
:102B9000004F09D0B3F5404F04D108232CE70BB9FF
:102BA000002329E7102327E7022325E7042323E74F
:102BB000012321E700231FE7082B55D8DFE803F0A6
:102BC00005172254405454544B00FEF7F1FD62683F
:102BD000530803EB4003B3FBF2F39BB2002023F056
:102BE0000F02C3F3420313432268D36038BDFEF7DC
:102BF000EFFD6268530803EB4003B3FBF2F39BB2B3
:102C00000020ECE762680D4B03EB5203B3FBF2F3D9
:102C10009BB20020E3E700BFF369FFEF0010014023
:102C20000044004000480040004C0040005000407C
:102C30000014014000780040007C00400048E8019A
:102C4000FEF794FC6268530803EB4003B3FBF2F316
:102C50009BB20020C3E76268530803F58033B3FBDF
:102C6000F2F39BB20020BAE701200023B7E7FEF79A
:102C70009FFD636800EB5300B0FBF3F080B2E860A7
:102C8000002038BDFEF7A4FD636800EB5300B0FBE5
:102C9000F3F080B2E860002038BD62680F4B03EBB0
:102CA0005203B3FBF2F39BB2EB60002038BDFEF79A
:102CB0005DFC636800EB5300B0FBF3F080B2E860AA
:102CC000002038BD6268530803F50043B3FBF2F3FC
:102CD0009BB2EB60002038BD012038BD0024F40019
:102CE000436A13F0010F06D00268536823F40033DF
:102CF000816A0B435360436A13F0020F06D00268E7
:102D0000536823F48033C16A0B435360436A13F062
:102D1000040F06D00268536823F48023016B0B4331
:102D20005360436A13F0080F06D00268536823F417
:102D30000043416B0B435360436A13F0100F06D0FE
:102D40000268936823F48053816B0B439360436A5A
:102D500013F0200F06D00268936823F40053C16B70
:102D60000B439360436A13F0400F0AD00268536824
:102D700023F48013016C0B435360036CB3F5801F85
:102D80000BD0436A13F0800F06D00268536823F417
:102D90000023816C0B43536070470268536823F42F
:102DA000C003416C0B435360EBE710B582B004469F
:102DB0000023C366FDF75AFC2268126812F0080F60
:102DC00009D1202384F8693084F86A30002084F81F
:102DD000680002B010BD6FF07E43009303460022EE
:102DE0004FF400112046FFF7B7FB0028E9D003207D
:102DF000EFE778B310B5044690F869300BB324239D
:102E000084F869302268136823F0010313602046B8
:102E1000FFF7B6FD01281FD0636ABBB9226853686B
:102E200023F4904353602268936823F02A0393604D
:102E30002268136843F0010313602046FFF7B5FFD3
:102E400010BD80F8683001F06BF8D8E72046FFF736
:102E500047FFE3E70120704710BD0000014B1860F9
:102E6000704700BF3401002000B583B0484B1A6B97
:102E700042F400121A631B6B03F400130093009BCF
:102E800044484FF00063436000238360C3600361E4
:102E900043618361C3614FF4803202624362032362
:102EA00083624FF40003C3624FF4001303633A4B91
:102EB0000360FDF74DFD00285ED1002211460C2075
:102EC000FDF700FC0C20FDF72DFC334B334A9A60D4
:102ED000334ADA605968334A0A4042F001025A60C4
:102EE0001A6842F010021A601A6842F001021A6071
:102EF000274B1A6B42F400121A631B6B03F4001386
:102F00000193019B28484FF00063436000238360D6
:102F1000C360036143618361C3614FF48032026225
:102F20004362032383624FF40003C3624FF4001330
:102F300003631E4B0360FDF70BFD10BB002211461F
:102F40001020FDF7BFFB1020FDF7ECFB174B184AD4
:102F50009A60184ADA605968124A0A4042F001023F
:102F60005A601A6842F010021A601A6842F00102B0
:102F70001A6003B05DF804FBA9210F4800F0B0FA15
:102F80009BE74FF48F710C4800F0AAFAD6E700BF18
:102F900000380240581100202860024024480040B8
:102FA000381300200000FFFF7812002088600240E4
:102FB000244400400A04002004540008114B00215E
:102FC000D966212283F869200F4ADA640122A3F826
:102FD0005020A3F8522083F868101868026842F065
:102FE00080020260094A106840F01000106010680A
:102FF00040F0010010604FF40060283A906083F8C0
:1030000068107047980000203813002028600240A4
:10301000104B0022DA66212183F869100E49D96429
:103020000121A3F85010A3F8521083F868201A6801
:10303000136843F080031360084B1A6842F01002D3
:103040001A601A680A431A604FF40062883BDA601B
:10305000704700BF741000200A04002088600240FE
:1030600000B583B002A941F8040D4FF0FF330122EF
:103070000348FFF7A3FA019803B05DF804FB00BF13
:103080007410002000B583B04FF0FF3301220DF122
:1030900007011048FFF7F8FA4FF0FF3301220DF156
:1030A00007010D480068FFF789FA9DF807300D2BDE
:1030B00004D09DF8070003B05DF804FB02A90A23C1
:1030C00001F8023D4FF0FF33012203480068FFF78B
:1030D00075FAEEE7741000203401002008B5FFF700
:1030E000BFFF08BD08B5FFF7CDFF08BD08B509480B
:1030F000094B036000230371437143618361012322
:103100000362FDF755FB00B908BD3D21034800F0FF
:10311000E7F9F9E78013002000300240345400083A
:103120000268094B9A4200D0704782B003F50063F1
:103130001A6B42F480521A631B6B03F480530193A1
:10314000019B02B0F0E700BF0030024000B583B041
:10315000164B1A6B42F400121A631B6B03F4001334
:103160000193019B002211460C20FDF7ABFA0C20C5
:10317000FDF7D8FA002211460E20FDF7A3FA0E2023
:10318000FDF7D0FA002211461020FDF79BFA10201F
:10319000FDF7C8FA002211461120FDF793FA11201D
:1031A000FDF7C0FA03B05DF804FB00BF0038024031
:1031B0002DE9F04F8FB06C4B1A6B42F004021A638A
:1031C0001A6B02F004020192019A1A6B42F020027B
:1031D0001A631A6B02F020020292029A1A6B42F0F2
:1031E00080021A631A6B02F080020392039A1A6B30
:1031F00042F001021A631A6B02F001020492049A6F
:103200001A6B42F002021A631A6B02F00202059274
:10321000059A1A6B42F008021A631A6B02F0080250
:103220000692069A1A6B42F040021A631A6B02F079
:1032300040020792079A1A6B42F010021A631B6B46
:1032400003F010030893089BDFF82CA100224FF431
:1032500081415046FDF7A4FE444F002240213846EC
:10326000FDF79EFE4FF4005BCDF824B0404B0A936F
:1032700000240B94DFF8049109A94846FDF704FDEA
:103280003223099302260A960B9403250C954FF0DE
:103290000B08CDF8348009A94846FDF7F5FC8623D4
:1032A00009930A960B940C95CDF83480A9F5006922
:1032B00009A94846FDF7E8FCCDF824B00A960B941E
:1032C0000C95CDF8348009A95046FDF7DDFC4FF48C
:1032D000814309934FF0010BCDF828B00B940C9467
:1032E00009A95046FDF7D0FC40230993CDF828B03A
:1032F0000B940C9409A93846FDF7C6FC802309936A
:103300000A940B9409A93846FDF7BEFC4FF4E85324
:1033100009930A960B940C950A230D9309A9484624
:10332000FDF7B2FC4FF4007309930A940B9409A9BA
:103330004846FDF7A9FC09950A960B940C950923BC
:103340000D9309A90B48FDF79FFC4FF420530993F7
:103350000A960B940C95CDF8348009A93846FDF7F0
:1033600093FC0FB0BDE8F08F003802400018024017
:1033700000001110000C024000040240000802404E
:1033800008B51548154B0360154B43600023836057
:103390000122C260036143618361C3610362FDF77F
:1033A00005FE50B900210C48FDF75EFE50B9002122
:1033B0000948FDF787FE50B908BD4321094800F0D0
:1033C0008FF8EFE74A21074800F08AF8EFE751212C
:1033D000044800F085F8EFE7A413002000540040F3
:1033E000FFEAC0004454000808B51548154B0360B7
:1033F000154B4360002383600122C2600361436177
:103400008361C3610362FDF7D1FD50B900210C480F
:10341000FDF72AFE50B900210948FDF753FE50B9C7
:1034200008BD6421094800F05BF8EFE76B2107480D
:1034300000F056F8EFE77221044800F051F8EFE78A
:10344000F013002000580040FFEAC0004454000878
:1034500000B589B003681D4A934205D01C4A9342C7
:103460001CD009B05DF804FB4FF4407303931223A2
:10347000049301230593032306930423079303A9CD
:103480001448FDF701FC144B1A6C42F400121A6444
:103490001B6C03F400130193019BE2E703230393E6
:1034A000122204920122059206930423079303A992
:1034B0000A48FDF7E9FB084B1A6C42F480021A64D3
:1034C0001B6C03F480030293029BCAE70054004084
:1034D000005800400004024000380240001402403E
:1034E000FEE7000000B5B9B03C4B1A6C42F08052C8
:1034F0001A641B6C03F080530093009B384A1368D6
:1035000023F4404343F480431360136803F44043BF
:103510000193019B09232B934FF4A0232C930123A8
:103520003093022231924FF4800332930423339379
:1035300064213491359236932BA8FDF72DFE002897
:1035400039D1FDF7EBFD002839D10F232693022353
:103550002793002328934FF4805229922A93032122
:1035600026A8FEF76DF878BB4FF6A05302934FF4F0
:1035700000730E93002314931593179318931993C4
:103580001A931B931C9302A8FEF732F908BBFEF7AF
:1035900009F9144BA3FB00308009FDF7DDF8042086
:1035A000FDF7F0F8002211464FF0FF30FDF78AF8E2
:1035B00039B05DF804FBFC210B48FFF791FF40F2A6
:1035C00003110948FFF78CFF40F211110648FFF77D
:1035D00087FF4FF492710448FFF782FF00380240E2
:1035E00000700040D34D62105454000810B50446DA
:1035F000104B0360416000238360C36003618361FB
:103600000C234361FEF789FF48B92046FFF7F1FB21
:1036100050B92268936843F04003936010BD40F2B4
:1036200041110548FFF75CFF4FF4A2710248FFF714
:1036300057FF00BF004800405454000810B5374CF5
:103640002068002302221946406801F06DF92068C5
:10365000002302221946806801F066F920680023E1
:1036600002221946C06801F05FF9FCF7E7FFFFF797
:1036700039FFFFF79DFDFFF769FD00F011FCFFF733
:1036800035FDFFF77DFEFFF7AFFE00F05DF800F0BF
:1036900087F800F0AFF800F059FA00F091FA00F066
:1036A000C5FA00F0FDFA00F07BFB00F099FB00F09A
:1036B000B7FB00F0D5FB00F013FC194C4FF4E131DF
:1036C0002046FFF793FF2046FFF7C8FB154801F09F
:1036D00013F9154C204601F00FF9144801F00CF9CC
:1036E000134801F009F9134801F006F9204601F0EA
:1036F00003F9114801F000F9104801F0FDF8104AF3
:10370000936843F040039360FFF7AEFB4FF4FA6019
:10371000FCF7B2FF0B4801F0EFF8FEE70C000020C9
:103720007410002064540008A4540008E0540008F9
:103730001C5500085855000894550008D455000839
:1037400000440040E855000808B50A480A4B0360E9
:10375000002343607F228260FF22C26003614361D5
:103760008361FEF767FB00B908BD40210348FFF7FE
:10377000B7FEF9E73C14002000280040FC55000883
:103780000268054B9A4200D07047044A136F43F415
:1037900000431367F8E700BF0028004000380240EC
:1037A00008B51148114B03604FF482734360002346
:1037B00083604FF44072C260036143614FF4007252
:1037C0008261C3610362436283620722C262036350
:1037D00008234363FEF780FB00B908BD4821044875
:1037E000FFF77EFEF9E700BFC01400200030014063
:1037F0000C56000808B51148114B03604FF4827352
:103800004360002383604FF44072C26003614361F0
:103810004FF400728261C3610362436283620722D4
:10382000C262036308234363FEF756FB00B908BD79
:1038300060210448FFF754FEF9E700BF5C14002044
:10384000003800400C560008F0B589B00368284ADB
:10385000934204D0274A934224D009B0F0BD264BAE
:103860005A6C42F480525A645B6C03F480530193A7
:10387000019B6023039302270497002605960325E6
:1038800006950524079403A91C48FDF7FDF980233C
:103890000393049705960695079403A91848FDF726
:1038A000F3F9DAE7144B1A6C42F480421A641B6C89
:1038B00003F480430293029B0C2303930227049793
:1038C0000026059603250695052407940DEB0301B4
:1038D0000C48FDF7D9F94FF48063039304970596DC
:1038E0000695079403A90848FDF7CEF9B5E700BF90
:1038F0000030014000380040003802400000024023
:10390000000C0240000802400004024000B583B0F1
:10391000214B1A6C42F080521A641A6C02F08052E9
:103920000092009A5A6C42F480425A645B6C03F431
:1039300080430193019B0320FCF7B2FE0022114655
:103940006FF00B00FCF7BEFE002211466FF00A007C
:10395000FCF7B8FE002211466FF00900FCF7B2FE3A
:10396000002211466FF00400FCF7ACFE0022114665
:103970006FF00300FCF7A6FE002211466FF0010075
:10398000FCF7A0FE002211464FF0FF30FCF79AFE34
:1039900003B05DF804FB00BF003802407047FEE74B
:1039A000FEE7FEE7FEE770477047704708B5FCF793
:1039B00051FEFCF7F8FE08BD08B50248FEF71DFBF6
:1039C00008BD00BF2415002008B50248FEF715FB0E
:1039D00008BD00BF6415002008B50248FDF766F871
:1039E00008BD00BF1812002008B50248FDF75EF8B8
:1039F00008BD00BFD81200207047704708B50248C4
:103A000000F006FF08BD00BF1C56000808B50248BC
:103A1000FEF710FF08BD00BF9800002008B502485F
:103A2000FEF708FF08BD00BF7410002008B5064B64
:103A30001B6813F4006F00D108BD4FF40062024B05
:103A40009A60FFF7BBFAF7E70060024008B5064B43
:103A50005B6813F4006F00D108BD4FF40062024BA5
:103A6000DA60FFF7D5FAF7E700600240F8B50D46D7
:103A70001746002405E06E1CFFF734FB2870013464
:103A80003546BC42F7DB3846F8BD70B51646002413
:103A900005E04D1C0878FFF721FB01342946B442AC
:103AA000F7DB304670BD000008B503460B4A1268CC
:103AB00042B10A4A106803446A46934206D8074A4C
:103AC000136008BD0649054A1160F2E700F046FCA4
:103AD0000C2303604FF0FF3008BD00BF8C000020B6
:103AE000E81700204FF0FF3070474FF400534B6051
:103AF00000207047012070470020704710B40F4A23
:103B0000D2F8883043F47003C2F888300C4B19683F
:103B100041F001011960002098601C6809492140AA
:103B2000196009495960196821F480211960D86029
:103B30004FF0006393605DF8044B704700ED00E0C8
:103B400000380240FFFFF6FE1030002400B589B0B7
:103B50001848194B0360002343608360C36003610E
:103B600043618361FEF7B6FBA0B908A94FF4805307
:103B700041F8103D0F48FEF7D3FB80B900230193B5
:103B80000293039301A90B48FEF754FC60B909B0F6
:103B90005DF804FB43210948FFF7A2FCE5E7492152
:103BA0000648FFF79DFCE9E751210448FFF798FC20
:103BB000EDE700BFE4150020000001404456000876
:103BC00000B589B017484FF080430360002343607D
:103BD0008360C36003618361FEF77CFB98B908A929
:103BE0004FF4805341F8103D0E48FEF799FB78B929
:103BF00000230193039301A90A48FEF71BFC60B957
:103C000009B05DF804FB63210748FFF769FCE6E7AC
:103C100069210548FFF764FCEAE770210248FFF7D5
:103C20005FFCEDE7641500204456000800B589B03C
:103C30001848194B036042F20F73436000238360FE
:103C40006322C26003618361FEF744FB98B908A94F
:103C50004FF4805341F8103D0E48FEF761FB78B9F0
:103C600000230193039301A90A48FEF7E3FB60B91F
:103C700009B05DF804FB82210848FFF731FCE6E754
:103C800088210648FFF72CFCEAE78F210348FFF75D
:103C900027FCEDE7241500200004004044560008EE
:103CA00000B589B01848194B036042F20F734360A6
:103CB000002383606322C26003618361FEF70AFB15
:103CC00098B908A94FF4805341F8103D0E48FEF70B
:103CD00027FB78B900230193039301A90A48FEF753
:103CE000A9FB60B909B05DF804FBA1210848FFF702
:103CF000F7FBE6E7A7210648FFF7F2FBEAE7AE216C
:103D00000348FFF7EDFBEDE7A41500200008004095
:103D10004456000884B003681D4A93420AD0B3F1A8
:103D2000804F12D01B4A93421BD01B4A934223D090
:103D300004B07047194B5A6C42F001025A645B6C34
:103D400003F001030093009BF2E703F50E331A6CB6
:103D500042F001021A641B6C03F001030193019B02
:103D6000E6E70E4B1A6C42F002021A641B6C03F079
:103D700002030293029BDBE7084B1A6C42F0040239
:103D80001A641B6C03F004030393039BD0E700BF8A
:103D900000000140000400400008004000380240DC
:103DA00008B50C480C4B03604FF4E133436000232B
:103DB0008360C36003610C2242618361C36103625B
:103DC0004362FFF716F800B908BD4D210348FFF71D
:103DD00087FBF9E794160020005000405456000875
:103DE00008B50C480C4B03604FF4E13343600023EB
:103DF0008360C36003610C2242618361C36103621B
:103E00004362FEF7F6FF00B908BD61210348FFF7E2
:103E100067FBF9E72416002000780040545600089C
:103E200008B50C480C4B03604FF4E13343600023AA
:103E30008360C36003610C2242618361C3610362DA
:103E40004362FEF7D6FF00B908BD75210348FFF7AE
:103E500047FBF9E704170020007C00405456000897
:103E600008B50C480C4B03604FF4E133436000236A
:103E70008360C36003610C2242618361C36103629A
:103E80004362FEF7B6FF00B908BD8A210348FFF779
:103E900027FBF9E798000020004400405456000832
:103EA00008B50C480C4B03604FF4E133436000232A
:103EB0008360C36003610C2242618361C36103625A
:103EC0004362FEF796FF00B908BD9F210348FFF744
:103ED00007FBF9E774100020004800405456000822
:103EE00008B50C480C4B03604FF4E13343600023EA
:103EF0008360C36003610C2242618361C36103621A
:103F00004362FEF776FF00B908BDB4210348FFF70E
:103F1000E7FAF9E77417002000140140545600082E
:103F20002DE9F0418CB003689E4A934214D00446B8
:103F30009D4A934235D09D4A93424BD09C4A93422E
:103F400060D09C4A934200F0B8809B4A934200F0B4
:103F500010810CB0BDE8F081984B1A6C42F48012CD
:103F60001A641B6C03F480130193019B4FF4805877
:103F7000CDF81C80022708970026099603250A958C
:103F800008240B9407A98E48FCF77EFECDF81C8010
:103F9000089709960A950B9407A98A48FCF774FEBE
:103FA000D7E7864B1A6C42F080421A641B6C03F010
:103FB00080430293029BC0230793022308930023AC
:103FC000099303230A9308230B9307A97E48FCF760
:103FD0005BFEBEE7794B1A6C42F000421A641B6C20
:103FE00003F000430393039B0323079302220892E9
:103FF000002209920A9308230B9307A97348FCF740
:1040000043FEA6E76D4B1A6C42F400321A641B6C37
:1040100003F400330493049B602307930223089363
:104020000025099503230A9307230B9307A96848E2
:10403000FCF72AFE6748684B03604FF0006343605B
:104040008560C5604FF48063036145618561C5612A
:1040500005624562FCF77CFC18BB5E4B63669C63A3
:104060005E485F4B03604FF0006343604023836012
:104070000023C3604FF48062026143618361C361C6
:1040800003624362FCF764FC88B9544B23669C636B
:10409000002211462620FCF715FB2620FCF742FBE8
:1040A00057E74FF495714F48FFF71AFAD5E74FF4E9
:1040B0009E714C48FFF714FAE7E7404B1A6C42F444
:1040C00080221A641B6C03F480230593059B4FF434
:1040D00040730793022308930025099503230A934D
:1040E00007230B9307A93A48FCF7CEFD3E483F4B08
:1040F00003604FF0006343608560C5604FF48063E8
:10410000036145618561C56105624562FCF720FC7C
:1041100018BB354B63669C633548364B03604FF0E4
:1041200000634360402383600023C3604FF48062D8
:10413000026143618361C36103624362FCF708FC6F
:1041400088B92B4B23669C63002211462720FCF77D
:10415000B9FA2720FCF7E6FAFBE64FF4B4712148E0
:10416000FFF7BEF9D5E74FF4BD711E48FFF7B8F968
:10417000E7E7124B5A6C42F020025A645B6C03F082
:1041800020030693069BC023079302230893002372
:10419000099303230A9308230B9307A90948FCF703
:1041A00073FDD6E60050004000780040007C0040DF
:1041B0000044004000480040001401400038024024
:1041C00000040240000802400014024000100240B7
:1041D000000C0240F810002088600240D812002035
:1041E000A060024054560008B81100202860024028
:1041F000181200205860024010B50368374A9342F5
:1042000010D00446364A93421DD0364A934225D0F8
:10421000354A93422DD0354A93423ED0344A934298
:1042200050D010BD02F5F432136C23F480131364E4
:104230004FF480512F48FCF715FE4FF480512E4863
:10424000FCF710FE10BD02F5E032136C23F0804342
:104250001364C0212948FCF705FE10BD02F5DE32CB
:10426000136C23F00043136403212548FCF7FAFD87
:1042700010BD02F5FA32136C23F40033136460218D
:104280002048FCF7EFFD606EFCF7CAFB206EFCF7E0
:10429000C7FB2620FCF752FA10BD02F5F832136C6A
:1042A00023F4802313644FF440711648FCF7DAFDC1
:1042B000606EFCF7B5FB206EFCF7B2FB2720FCF725
:1042C0003DFA10BD02F59232536C23F02003536483
:1042D000C0210948FCF7C6FDA3E700BF005000401D
:1042E00000780040007C004000440040004800404E
:1042F0000014014000040240000802400014024083
:1043000000100240000C0240DFF834D0002103E02E
:104310000C4B5B58435004310B480C4B42189A42EB
:10432000F6D30B4A02E0002342F8043B094B9A42C1
:10433000F9D3FFF7E3FB00F093F9FFF77FF970473C
:10434000000008200C57000800000020700000202A
:1043500070000020E8170020FEE70000014B1868FD
:10436000704700BF0C0000208A892DE9F041054606
:1043700010070C465AD44B68002B05DC0B6C002B45
:1043800002DC0020BDE8F081E66A002EF9D00023AF
:1043900012F480522F682B6033D0606DA3895A07C6
:1043A00005D56368C01A636B0BB1236CC01A002378
:1043B0000246E66A216A2846B047431CA38906D113
:1043C00029681D294BD82B4ACA40D60747D5002259
:1043D0006260D9042269226004D5421C01D12B6895
:1043E00003B96065616B2F600029CAD004F14403F2
:1043F000994202D0284600F05FF900206063BDE8D2
:10440000F081216A01232846B047411CC6D12B68A0
:10441000002BC3D01D2B01D0162B01D12F60B0E78C
:10442000A38943F04003A381BDE8F0810F69002F09
:10443000A7D093070E6808BF4B690F6018BF002311
:10444000A6EB07088B60B8F1000F9ADD43463A46A9
:10445000216AA66A2846B047002807DCA38943F0F2
:104460004003A3814FF0FF30BDE8F0810744A8EB83
:104470000008E8E70100402038B50B6905460C4606
:10448000DBB118B183690BB900F060F80C4B9C42AA
:1044900009D16C68B4F90C307BB121462846BDE8DF
:1044A0003840FFF761BF074B9C4201D1AC68F1E790
:1044B000054B9C4208BFEC68ECE7002038BD00BF0C
:1044C00084560008A456000864560008014900F00C
:1044D000A9B800BF79440008002310B50446036062
:1044E0004360836081814366C2810361436183616C
:1044F000194608225C3000F0D7F8054B6362054B83
:10450000A362054BE362054B2462236310BD00BF29
:10451000854A0008A74A0008DF4A0008034B000844
:1045200070B54A1E682555430E4605F1740100F02A
:1045300011F9044640B1002180E842000C30A0602F
:1045400005F1680200F0B0F8204670BD836910B52F
:10455000044633BB8364C3640365124B124A1B6871
:104560008262984204BF0123836100F01FF86060FB
:10457000204600F01BF8A060204600F017F800224B
:10458000E06004216068FFF7A7FF01220921A0680D
:10459000FFF7A2FF02221221E068FFF79DFF01232F
:1045A000A36110BDC4560008CD440008F8B51C4BEB
:1045B0001E68B369074613B93046FFF7C7FF483690
:1045C000B4687368013B03D5336833B13668F7E7E5
:1045D000B4F90C506DB16834F4E704213846FFF7A4
:1045E0009FFF30600028F1D10C233B600446204639
:1045F000F8BD4FF6FF73E3810123A3816566256053
:10460000A560656025616561A5610822294604F100
:104610005C0000F049F86563A563A564E564E6E71E
:10462000C45600082DE9F8438046894600F1480445
:10463000002614B93046BDE8F883A5686768013FD5
:1046400001D52468F5E7AB89012B07D9B5F90E3000
:10465000013303D029464046C84706436835EEE794
:1046600070B50D4E0D4CA41BA4100025A54209D118
:104670000B4E0C4C00F0B6FEA41BA4100025A54266
:1046800005D170BD56F8253098470135EEE756F84C
:10469000253098470135F2E7045700080457000811
:1046A000045700080857000802440346934200D10B
:1046B000704703F8011BF9E738B50546002945D0D6
:1046C00051F8043C0C1F002BB8BFE41800F07EFB2F
:1046D0001F4A1368104633B9636014602846BDE86A
:1046E000384000F074BBA3420CD921686218934291
:1046F00004BF1A685B68636004BF521822600460DC
:10470000ECE713465A680AB1A242FAD91968581858
:10471000A0420BD120680144581882421960DDD1B3
:10472000106852685A6001441960D7E702D90C2317
:104730002B60D3E7206821188A4204BF11685268B1
:10474000626004BF091821605C60C7E738BD00BF24
:104750009000002070B5CD1C25F0030508350C2D08
:1047600038BF0C25002D064601DBA94203D90C23D6
:104770003360002070BD00F029FB234A14682146F5
:1047800091B9224C23681BB9304600F0BDF8206077
:104790002946304600F0B8F8431C26D10C2333607C
:1047A000304600F014FBE4E70B685B1B1AD40B2BBC
:1047B0000FD90B60CD50CC18304600F008FB04F147
:1047C0000B00231D20F00700C31A1BD05A42E250F1
:1047D00070BD8C420DBF63684B686360136018BF87
:1047E0000C46E9E70C464968CAE7C41C24F00304F8
:1047F000A04205D0211A304600F086F80130CDD015
:104800002560D9E770BD00BF900000209400002013
:104810000FB40A4B13B51C6824B1A36913B9204621
:10482000FFF794FE05AB049AA1680193204600F0BF
:10483000F9FA02B0BDE8104004B070470C00002047
:1048400070B50E46054618B183690BB9FFF77EFEB9
:10485000AB69AC6813B92846FFF778FE234B9C423E
:1048600017D16C68A3891B071DD52369DBB1013EF5
:10487000A36816F8011F013BA360E9B9002B2EDAEB
:1048800022460A21284600F041F9013011D00A20C1
:1048900070BD174B9C4201D1AC68E3E7154B9C42BD
:1048A00008BFEC68DEE72146284600F093F90028AF
:1048B000DDD04FF0FF3070BD002B04DAA2699342C7
:1048C00006DB0A2904D023685A1C22601970CFE73E
:1048D0002246284600F01AF90130C9D1E9E72368D9
:1048E0000A205A1C2260187070BD00BF8456000850
:1048F000A456000864560008024B01461868FFF7EA
:104900009FBF00BF0C00002038B5064C00230546B1
:1049100008462360FFF7C8F8431C02D1236803B19F
:104920002B6038BDE41700202DE9F7431D46514B9D
:104930001E6804460F46904626B1B36913B9304647
:10494000FFF704FE4C4B9C4252D17468B8F1020F41
:1049500006D0B8F1010F00F28980002DC0F28680E8
:1049600021463046FFF788FD616B41B104F14403F5
:10497000994202D03046FFF79FFE00236363002375
:10498000A3616360A3891B0603D521693046FFF745
:1049900093FEA38923F44A6323F00303B8F1020FC3
:1049A000A3815DD001AB6A462146304600F0A2F9F2
:1049B000A3891843A0812DBB009D284600F0FEF975
:1049C000074600284ED1DDF80090A9453CD14FF0B4
:1049D000FF30A38943F00203A3810023A36004F105
:1049E0004703236023610123636103B0BDE8F083C3
:1049F000224B9C4201D1B468A8E7214B9C4208BFDE
:104A0000F468A3E7002FD8D0B36913B93046FFF795
:104A10009DFDB8F1010F08BFA389276004BF43F0D3
:104A20000103A381A389276113F0080065611BD0EE
:104A300013F0010018BF6D424FF000031DBFA360CB
:104A4000A5611846A560D0E7484600F0B7F90746CB
:104A50000028BCD0A38943F08003A3814D46D3E74F
:104A60000020B6E7A946F5E7A060BEE74FF0FF30AB
:104A7000BBE700BF0C00002084560008A4560008C5
:104A80006456000810B50C46B1F90E1000F076FC23
:104A90000028ABBF636DA3891B1823F48053ACBF00
:104AA0006365A38110BD2DE9F0411F468B89DB05AD
:104AB00005460C46164605D502230022B1F90E1014
:104AC00000F006F9A389B4F90E1023F48053A381F2
:104AD00032463B462846BDE8F04100F069B810B5C3
:104AE0000C46B1F90E1000F0F3F8431CA38915BF72
:104AF000606523F4805343F48053A38118BFA381DE
:104B000010BDB1F90E1000F0D3B80000F8B50E4694
:104B10001446054618B183690BB9FFF717FD214B01
:104B20009C422AD16C68A369A360A3891A072ED579
:104B3000236963B323692068C01A6369F6B2984297
:104B4000374604DB21462846FFF796FC28BBA368BE
:104B5000013BA36023685A1C22601E706369013008
:104B6000984204D0A389DB0719D50A2E17D1214614
:104B70002846FFF781FC90B10FE00B4B9C4201D11E
:104B8000AC68D0E7094B9C4208BFEC68CBE72146F4
:104B9000284600F01FF80028CCD04FF0FF373846E9
:104BA000F8BD00BF84560008A456000864560008EB
:104BB00038B5074C054608461146002222601A46C1
:104BC000FEF763FF431C02D1236803B12B6038BD9D
:104BD000E4170020324B70B51D6806460C4625B11F
:104BE000AB6913B92846FFF7B1FC2E4B9C420FD19D
:104BF0006C68B4F90C309AB215072CD4D00611D4D5
:104C00000922326043F04003A3814FF0FF3070BDB2
:104C1000254B9C4201D1AC68EBE7244B9C4208BF7A
:104C2000EC68E6E7510712D5616B41B104F144032A
:104C3000994202D03046FFF73FFD00236363A3890A
:104C400023F02403A3810023636023692360A389E5
:104C500043F00803A38123694BB9A38903F42073AC
:104C6000B3F5007F03D02146304600F067F8A289F3
:104C700012F001030CD00023A36063695B42A361BF
:104C8000236953B9B4F90C3013F08000BAD170BD68
:104C9000920758BF6369A360F2E70020F7E700BFFF
:104CA0000C00002084560008A45600086456000832
:104CB00038B5064C0023054608462360FEF712FF70
:104CC000431C02D1236803B12B6038BDE4170020D8
:104CD00038B5074C054608461146002222601A46A0
:104CE000FEF70AFF431C02D1236803B12B6038BDD5
:104CF000E417002070B50E46B1F90E10002990B0EF
:104D000014461D4607DA00232B60B3891A0610D417
:104D10004FF480630EE001AA00F042FB0028F2DBB2
:104D2000029A02F47042A2F500535A425A412A6094
:104D3000EEE740230020236010B070BD8B8973B56F
:104D40009D0706460C4607D504F1470323602361FF
:104D50000123636102B070BD01AB6A46FFF7CAFF71
:104D6000009905463046FFF7F5FC48B9B4F90C3018
:104D70009A05EFD423F0030343F00203A381E3E792
:104D80000D4BB362A389206043F08003A381009B95
:104D90006361019B20615BB1B4F90E10304600F0F5
:104DA00011FB28B1A38923F0030343F00103A3817E
:104DB000A3891D43A581CDE7CD440008024B0146E0
:104DC0001868FFF7C7BC00BF0C0000207047704791
:104DD0009368013B002B10B4936009DA9469A342F5
:104DE00002DBCBB20A2B03D15DF8044BFFF78EBE7A
:104DF0001368581C10601970C8B25DF8044B7047F6
:104E0000F8B506460F461446D518AC4201D100202D
:104E100007E03A4614F8011B3046FFF7D9FF431C60
:104E2000F3D1F8BD2DE9F04F9DB00C461746039322
:104E3000064618B183690BB9FFF788FB7C4B9C428F
:104E400057D17468A38918075DD52369002B5AD000
:104E50000023099320238DF8293030238DF82A3040
:104E60004FF0010BB846454615F8013B002B55D1D4
:104E7000B8EB070A0BD053463A4621463046FFF7B7
:104E8000BFFF013000F0C480099B5344099398F898
:104E90000030002B00F0BC8000234FF0FF32049361
:104EA0000793059206938DF853301A9305222978BB
:104EB0006048FBF7C5F905F10108049B002831D1D2
:104EC000D90644BF20228DF853201A0744BF2B2255
:104ED0008DF853202A782A2A2CD0079A00210A20FC
:104EE000A846013598F80030303B092B6DD971B3D5
:104EF00026E0514B9C4201D1B468A3E74F4B9C4242
:104F000008BFF4689EE721463046FFF763FE00289D
:104F10009ED04FF0FF301DB0BDE8F08F252BA7D0FD
:104F2000A846A0E7434A801A0BFA00F01843049001
:104F30004546BBE7039A111D12680391002A01DB65
:104F4000079204E0524243F002030792049398F858
:104F500000302E2B10D198F801302A2B08F10101D6
:104F600037D1039B1A1D1B680392002BB8BF4FF06B
:104F7000FF3308F102080593314D98F80010032221
:104F80002846FBF75DF940B14023401B03FA00F0CF
:104F9000049B0343049308F1010898F80010294882
:104FA0008DF82810062208F10107FBF749F90028BF
:104FB00034D0254B03BB039B073323F0070308338F
:104FC0000393099B4B4409934CE700FB02320121F8
:104FD00086E70023059318460A258846013198F88C
:104FE0000020303A092A03D9002BC5D00590C3E729
:104FF00005FB00200123F0E703AB00932246134B8F
:1050000004A93046AFF30080B0F1FF3F8146D8D10C
:10501000A3895B063FF57DAF09987CE703AB00935E
:1050200022460A4B04A9304600F088F8ECE700BF9E
:1050300084560008C8560008A456000864560008A4
:10504000CE560008D256000800000000014E0008AD
:105050002DE9F04791461F468A680B69DDF82080EC
:105060009342B8BF1346C9F8003091F84320064672
:105070000C4612B10133C9F800302368990642BFCB
:10508000D9F800300233C9F80030256815F006055C
:1050900007D104F1190AE368D9F800209B1A9D4250
:1050A00029DB94F843302268003318BF01239206AD
:1050B0002ED404F1430239463046C047013021D096
:1050C0002368E568D9F8002003F00603042B08BF25
:1050D000AD1AA36822690CBF25EAE5750025934245
:1050E000C4BF9B1AED184FF000091A344D451BD16F
:1050F0000020BDE8F0870123524639463046C047BC
:10510000013003D14FF0FF30BDE8F0870135C2E731
:10511000E1185A1C302081F84300224494F84510CD
:1051200082F843100233C4E7012322463946304651
:10513000C0470130E6D009F10109D7E72DE9F04376
:1051400017460A7E85B06E2A984606460C460C9B8A
:1051500001F1430E00F0BC801AD8632A2ED00AD881
:10516000002A00F0C880582A00F08A8004F1420525
:1051700084F842202AE0642A01D0692AF6D1216805
:105180001A6811F0800F23D0111D1960136827E0F1
:10519000732A00F0B48008D86F2A2AD0702AE5D18B
:1051A0000A6842F020020A6003E0752A21D0782ABA
:1051B000DCD1782284F845206E4964E01A6801F158
:1051C0004205111D1960136884F842300123A3E0E1
:1051D00011F0400F02F104011960D7D0B2F900308C
:1051E000002B03DA2D225B4284F8432062490A2215
:1051F00017E02068196810F0800F03D0081D1860B0
:105200000B6806E010F0400F01F104001860F7D0C1
:105210000B8859496F2A14BF0A220822002084F8FB
:1052200043006568A560002DC0F29C80206820F0D6
:1052300004002060002B3FD1002D40F09580754682
:10524000082A0BD12368DA0708D5236962689A42D5
:10525000DEBF302305F8013C05F1FF35AEEB050359
:105260002361CDF800803B4603AA21463046FFF774
:10527000EFFE013055D14FF0FF3005B0BDE8F083AF
:1052800081F845203C492268186812F0800F00F12F
:1052900004051D6001D0036802E05506FBD50388B4
:1052A000D00744BF42F0200222601BB9226822F0DE
:1052B000200222601022B1E77546B3FBF2F002FB38
:1052C0001033CB5C05F8013D03460028F5D1B7E764
:1052D00008681A68496910F0800F04D0101D186022
:1052E0001368196007E010F0400F02F10400186025
:1052F0001368F6D01980002323617546B1E71A6858
:10530000111D19601568626800212846FAF798FF98
:1053100008B1401B606063682361002384F8433058
:105320009FE723692A4639463046C0470130A2D05C
:1053300023689B0707D5002504F11909E368039A40
:105340009B1A9D4205DBE068039B9842B8BF184654
:1053500093E701234A4639463046C04701308AD098
:105360000135EBE7002BA7D10B7884F8423004F12C
:10537000420565E7EA560008D956000838B5074CDB
:10538000054608461146002222601A46FEF76EFBCB
:10539000431C02D1236803B12B6038BDE417002001
:1053A00038B5074C00230546084611462360FEF732
:1053B0009CFB431C02D1236803B12B6038BD00BFA6
:1053C000E417002038B5064C002305460846236044
:1053D000FEF790FB431C02D1236803B12B6038BD5C
:1053E000E4170020F8B500BFF8BC08BC9E46704723
:0C53F000F8B500BFF8BC08BC9E46704732
:1053FC0000061016000610162E2E2F4D6964646CD4
:10540C006577617265732F53542F53544D33325F4C
:10541C0053505746307853792F776966695F6D6FB3
:10542C0064756C652E6300002E2E2F5372632F63F0
:10543C0072632E63000000002E2E2F5372632F69AF
:10544C0032632E63000000002E2E2F5372632F6DDB
:10545C0061696E2E630000000D0A0A2F2A2A2A2A7F
:10546C002A2A2A2A2A2A2A2A2A2A2A2A2A2A2A2A90
:10547C002A2A2A2A2A2A2A2A2A2A2A2A2A2A2A2A80
:10548C002A2A2A2A2A2A2A2A2A2A2A2A2A2A2A2A70
:10549C002A2A2A2A000000000D202A202020202061
:1054AC0020202020202020202020202020202020F0
:1054BC0020202020202020202020202020202020E0
:1054CC0020202020202020202020202020202020D0
:1054DC00202A00000D202A20582D435542452D57D7
:1054EC004946493120457870616E73696F6E20535F
:1054FC006F6674776172652076332E312E312020E1
:10550C00202020202020202020202020202A0000C5
:10551C000D202A20436F6E736F6C65204170706C88
:10552C0069636174696F6E20202020202020202068
:10553C00202020202020202020202020202020205F
:10554C002020202020202020202A00000D202A208E
:10555C0053656E6420415420636F6D6D616E64738E
:10556C0020746F2053505746206D6F64756C652006
:10557C006469726563746C792020202020202020BF
:10558C0020202020202A00000D202A2A2A2A2A2A1C
:10559C002A2A2A2A2A2A2A2A2A2A2A2A2A2A2A2A5F
:1055AC002A2A2A2A2A2A2A2A2A2A2A2A2A2A2A2A4F
:1055BC002A2A2A2A2A2A2A2A2A2A2A2A2A2A2A2A3F
:1055CC002A2F0A0D000000000D506C6561736520D8
:1055DC00776169742E2E2E0D000000000D436F6E46
:1055EC00736F6C652052656164792E2E2E0D000050
:1055FC002E2E2F5372632F7274632E6300000000E3
:10560C002E2E2F5372632F7370692E6300000000CF
:10561C0055415254204552524F5221212100000035
:10562C000000000000000000010203040607080946
:10563C0000000000010203042E2E2F5372632F74FE
:10564C00696D2E63000000002E2E2F5372632F7590
:10565C00736172742E6300000000000000000000F3
:10566C00000000000000000000000000000000002E
:10567C00000000000000000000000000000000001E
:10568C00000000000000000000000000000000000E
:10569C0000000000000000000000000000000000FE
:1056AC0000000000000000000000000000000000EE
:1056BC00000000000000000010000020232D302B03
:1056CC002000686C4C0065666745464700303132F7
:1056DC00333435363738394142434445460030314E
:1056EC0032333435363738396162636465660000AD
:0856FC0014ACFF7F0100000067
:045704002502000872
:045708000102000892
:10570C0001000000100000000024F4001000002034
:10571C000000000084560008A456000864560008D7
:10572C00000000000000000000000000000000006D
:10573C00000000000000000000000000000000005D
:10574C00000000000000000000000000000000004D
:10575C00000000000000000000000000000000003D
:10576C00000000000000000000000000000000002D
:0400000508004309A3
:00000001FF
